:101B45006060016000050A0F14191E2328231E1961
:101B5500140F0A0500050A0F14191E2328231E1940
:101B6500140F0A0500050A0F14191E2328231E1930
:101B7500140F0A0500050A0F14191E2328231E1920
:101B8500140F0A0500050A0F14191E2328231E1910
:101B9500140F0A0500050A0F14191E2328231E1900
:101BA500140F0A056040012000102030405060707D
:101BB5008090A0B0C0D0E0F0FFF0E0D0C0B0A09021
:101BC5008070605040302010001020304050607010
:101BD5008090A0B0C0D0E0F0FFF0E0D0C0B0A09001
:101BE5008070605040302010606000C00000000030
:101BF5000000000000000000000000003232323218
:101C05003232323232323232323232320000000077
:101C150000000000000000000000000032323232F7
:101C25003232323232323232323232320000000057
:101C350000000000000000000000000032323232D7
:101C4500323232323232323232323232604001C0D6
:101C5500000000000000000000000000000000007F
:101C6500FFFFFFFFFFFFFFFFFFFFFFFFFFFFFFFF7F
:101C7500000000000000000000000000000000005F
:101C8500FFFFFFFFFFFFFFFFFFFFFFFFFFFFFFFF5F
:0723DF00AE071FEE70FA22A9
:0520A700900382EFF040
:1020AC0090038474FFF0E4900383F0900383E0FFCB
:1020BC00C39420505B74C02FF582E43401F583E0A7
:1020CC00FF900382E0C39FFFE49400FE1223D390A1
:1020DC000384E0D39FEE6480F8748098402A9003C8
:1020EC0083E024C0F582E43401F583E0FF900382A1
:1020FC00E0C39FFFE49400FE1223D3900384EFF01F
:10210C00900383E0900385F0900383E004F0809BC0
:10211C00900385E0FF24C0F582E43401F583E0FEF2
:10212C00900382E08EF084FE74C02FF582E43400BC
:0D213C00F583E02428FFEE8FF0A42478FF47
:012149002273
:101DE300900200E4F0A37478F09002C0E4F0A374CE
:101DF30014F0900380E4F0A304F07FEC120000AC35
:101E030006AD07900381E025E0FF900380E033FEF9
:101E130074002FF58274003EF583ECF0A3EDF074AB
:101E2300002FF58274003EF583A3E0FF1220A7EF95
:101E3300FD900381E025E0FB900380E033FA74001A
:101E43002BF58274023AF583E4F0A3EDF09003805E
:101E5300E0FEA3E0FF7C007D0F12221CEF2414FFA1
:101E6300E43EFE74C02BF58274023AF583EEF0A3D0
:101E7300EFF0900380E0FAA3E0FB25E0FDEA33FCFA
:101E830074FE2DF58274013CF583E0FEA3E0FFC0F0
:101E930006C00774BE2DF58274023CF583E0FCA3F3
:101EA300E0FDEB25E0FFEA33FE74002FF5827402B8
:101EB3003EF583E0FAA3E0FB74C02FF58274023E83
:101EC300F583E0FFA3E0900388CFF0A3EFF0A374C2
:101ED300F8F0A3E4F0D007D0061216297F041223EA
:101EE300DF900381E004F07006900380E004F0D3F8
:101EF300900381E09428900380E094005003021D36
:011F0300FDE0
:011F040022BA
:1019EC00900388E4F0A3740AF0E4A3F0A3F07BE680
:1019FC00FA7D0AFC7F0AFE121629E4900380F0900F
:101A0C000380E0FFD3940A502BEF75F016A4240A40
:101A1C00FFE435F0FEAB07FA900388E4F0A3740DF5
:101A2C00F0E4A3F0A3F07D0AFC121629900380E0E9
:101A3C0004F080CB9003887401F0A37462F0E4A3EB
:101A4C00F0A3F07BE6FA7D18FC7FE6FE121629E483
:101A5C00900380F0900380E0FFD3940F5029EF7532
:101A6C00F016A4241BFDE435F0FC900388F0A3EDE4
:101A7C00F0E4A3F0A3F07BE6FA7FE3FE12162990C4
:101A8C000380E004F080CDE4900380F0900380E0CC
:101A9C00FFD3940E5029EF75F014A42414FDE435F3
:101AAC00F0FC900388F0A3EDF0E4A3F0A3F07BDC52
:101ABC00FA7F14FE121629900380E004F080CDE426
:101ACC00900381F0900381E0FFD3940A502CEF75C2
:101ADC00F014A42414FFE435F0FEAB07FA9003884D
:101AEC007401F0A3742CF0E4A3F0A3F07D14FC12A9
:101AFC001629900381E004F080CA900388E4F0A3D7
:101B0C0074A2F0A3E4F0A3741FF07BDC7A007DA038
:101B1C007C007F147E001216299003887401F0A3B8
:101B2C00742CF0A3E4F0A3741FF07B7A7A007D147C
:091B3C007C007F787E000216296E
:1023B00012182074FFFFFE1222A41219EC121DE362
:0223C00080FE9D
:10237C00E4FDFCC3ED9FEC9E5014E4FBFA0BBB0098
:0E238C00010AEBF44A70F60DBD00010C80E56D
:01239A002220
:04235B00AD07AC0618
:10235F00ECFFAE05D2A5C2A7D2B2C2A68F90C2A57E
:0C236F00D2A5AF068F90C2A5D2A5D2A7C0
:01237B00223F
:05233500E0FEA3E0FF43
:04233A00AD07AC0639
:10233E00ECFFAE05D2A5C2A7D2B2D2A68F90C2A58F
:0C234E00D2A5AF068F90C2A5D2A5D2A7E1
:01235A002260
:04239B001223C2FF48
:10239F00D2A5C2A7D2B2D2A68F90C2A5D2A5D2A7DC
:0123AF00220B
:1023C200D2A5C2A7D2B2C2A68F90C2A5D2A5D2A7C9
:0123D20022E8
:10182000D2B37F647E0012237CC2B37F207E03127A
:10183000237CD2B312237CC2A77FCB7E001223C2AB
:101840007F3912239F7F2C12239FE4FF12239F7F57
:101850003412239F7F0212239F7FCF12239B7FA2EC
:1018600012239F7FF012239F7FE81223C27F8412EE
:10187000239F7F1112239F7F7A12239F7FEA1223D7
:10188000C27F6612239FFF12239F7FED1223C27F28
:101890005512239F7F0112239F7F2312239F7F01D5
:1018A00012239F7FF71223C27F2012239F7FC01233
:1018B00023C27F1C12239F7FC11223C27F131223D6
:1018C0009F7FC51223C27F2312239F7F3F12239F36
:1018D0007FC71223C27FA512239F7FB112239B7F54
:1018E0001712239F7F3A1223C27F5512239F7FB680
:1018F0001223C27F0A12239F7FA212239F7F2712E7
:10190000239FFF12239F7F361223C27F0812239F3B
:101910007FF21223C27F0212239F7F261223C27FEF
:101920000112239F7FE01223C27F0F12239F7F1497
:1019300012239F1F12239F7F0C12239F7F0E1223BF
:101940009F7F0512239F7F4512239F7F8512239F30
:101950007F3612239F7F0912239F7F1412239F7FBC
:101960000512239F7F0912239F7F0312239FFF12DB
:10197000239F7FE112239B7F2412239F7F26122324
:101980009F7F0312239F7F0F12239F7F0412239FA9
:101990007F3F12239F7F1412239F7F5212239F7F2A
:1019A0000412239F7F1012239F7F0E12239F7F38E4
:1019B00012239F0F12239F7F0F12239F7F2A122330
:1019C0009B12239F12239F7FEF12239F7F2B1223B3
:1019D0009B12239F0F12239F7F3F12239F7F111281
:0C19E00023C27F7812237C7F290223C2DF
:1022FB009003A7EEF0A3EFF0A3ECF0A3EDF07F2A91
:10230B007E001223C29003A7122335AE02AF031235
:10231B00233A7F2B7E001223C2A31223359003ADE9
:0A232B001223357F2C7E0002235B95
:0822A400900380EEF0A3EFF0BF
:1022AC009003AD7401F0A3743FF07BEF7A00E4FD72
:1022BC00FCFFFE1222FBE4900382F0A3F0E4FBFA95
:1022CC009003801223350BBB00010ABA01F2BB400C
:1022DC00EF900383E004F07006900382E004F0C3F7
:0E22EC00900383E094F0900382E0940040CFD2
:0122FA0022C1
:10000300C6D50000000000E0380000783C00003C4A
:100013007800003C70C0001CE1E01FFFFFF0001CF3
:10002300E3000E1CE7C0079CE78003DCEF0003DC62
:10003300EE0001DCFC60009CF9F07FFFFFF800009C
:10004300000001C00E0001FFFF0001C00E0001C04F
:100053000E0001C00E0001FFFE0001C00E0001C032
:100063000E0001C00E0001FFFE0001C00E0001C022
:100073000E0000000000D6D00000000000070000C2
:1000830000078000000700000007000000070000D1
:10009300000701801FFFFFE01FFFFFE01E0701C0F5
:1000A3001E0701C01E0701C01E0701C01E0701C0B5
:1000B3001E0701C01FFFFFC01FFFFFC01E0701C0B7
:1000C3001C07018000070000000700000007000074
:1000D3000007000000070000000700000007000001
:1000E300000700000007000000000000BFC600007A
:1000F300000000000780003C07C001FC07803FE0D0
:10010300078039C1C78001C0E78001C0F78001C003
:10011300778001DE77807FFE078001C0078003C3FD
:10012300C78003E1E78003F8F78007FCE7F00FDE01
:1001330067F80FDC07F81FC0FF801DDFE78039CCAD
:10014300078071C0078061C0078001C0078001C0BC
:10015300078001E0078001E0078001C0070000007D
:100163000000BCBC000000000380300003C03C0062
:1001730003C03C0003C0380003C0380003C038602C
:1001830003F838F07FFFFFF003C0380003C03800E6
:1001930003C0380003DC39C003FFFFE007E383C07B
:1001A3003FC183C07FC1C3803BC1C78003C0EF0091
:1001B30003C0EF0003C07E0003C07C0003C07C00CB
:1001C30003C0FE003BC3EF803F8787F80FBF03F8F0
:1001D300077800E000000000C4EA0000000000C04F
:1001E300000001F0000001E0000003C000C003C0F4
:1001F30001E007FFFFF00703C0000E03C0001E036A
:10020300C0003C03C3007303C78063FFFFC00383C5
:10021300C0000383C0000383C0000383C0000383C3
:10022300C0600383C0F07FFFFFF80003C00000033A
:10023300C0000003C0000003C0000003C0000003AF
:10024300C0000003C0000003C00000000000D4C2CF
:10025300000000000000000000E0070000FFFF8036
:1002630000F0078000F0070000F0070000F007002F
:1002730000F0070000FFFF0000FFFF0000F0070091
:1002830000F0070000F0070000F0070000E007009F
:1002930000FFFF0000E0070000E0070000E00700A8
:1002A30001E0070001C0070001C007000380070049
:1002B3000780F7000F007F001E001F0038001C009E
:1002C30000000000C8D5000000000000000003008B
:1002D300030003FFFF8003FFFF8003800700038009
:1002E30007000380070003800700038007000380E3
:1002F3000700038007000380070003FFFF0003805C
:1003030007000380070003800700038007000380C2
:1003130007000380070003800700038007000380B2
:10032300070003FFFF00038007000380070003802B
:1003330007000300000000000000D0C70000000019
:10034300000000000380070003FFFF800380070015
:10035300038007000380070003FFFF0003800700FB
:100363000380070003FFFF0003FFFF00038707006D
:100373000387C00003C7810003C7838007FFFFC053
:10038300070780000F0780001E0786001C078F00E9
:100393003BFFFF807007800000078000000780E0BC
:1003A300000781F07FFFFFF800000000000000005D
:1003B300C6DA0000000006000000079E0000079E4A
:1003C3007FF0079E7FF0079FF8F03FFFF8F01F9E36
:1003D30078F0079E78F0079E78F007FE7FF0079E7F
:1003E30078F0079E78F0079E70F007FE70F0079E86
:1003F30070F0079E7FF0079FFFF03FFFF0F0119032
:1004030070F003DCF0F003DEE0F0078FE0F00F0F95
:10041300E0F00E07C0F01C038FF0380F03E0201C40
:1004230001C0000000000000000000000000000008
:1004330000000000000000000000000000000000B9
:1004430000000000000000000000000000000000A9
:100453000000000000000000000000000000070092
:100463000700070007000700020002000200020065
:100473000200020000000000000007000700070060
:1004830000000000000000000000066006600CC0D1
:10049300198011002200000000000000000000008D
:1004A3000000000000000000000000000000000049
:1004B3000000000000000000000000000000000039
:1004C30010401040104010407FE07FE0104010408B
:1004D300208020807FE07FE020802080208020809B
:1004E3000000000000000000000000000200020005
:1004F3000F801AC032C032C032001A000E0007004B
:100503000380038002C032C032C032C012800F00A9
:1005130002000200000000000000000000000000D4
:1005230070C050808880890089008B008A005FC07A
:10053300754006200A200A201A201220114021C0EB
:1005430000000000000000000000000000000000A8
:100553001C00260026002600260025C03880308097
:1005630058804900CD00C700C600C300652038C0CD
:100573000000000000000000000030003800080008
:1005830008001000600000000000000000000000F0
:100593000000000000000000000000000000000058
:1005A3000000000000000000000000200040008068
:1005B3000180010003000300060006000600060098
:1005C300060006000600030003000100018000800E
:1005D3000040002000000000000040002000100048
:1005E300180008000C000C000600060006000600B8
:1005F3000600060006000C000C000800180010009E
:100603002000400000000000000000000000000087
:10061300000002000200020072703AE00F800F80B7
:100623003AE07270020002000200000000000000C5
:1006330000000000000000000000000000000000B7
:1006430000000000020002000200020002007FF02E
:10065300020002000200020002000000000000008D
:100663000000000000000000000000000000000087
:100673000000000000000000000000000000000077
:1006830000000000000000000000300038000800F7
:1006930008001000600000000000000000000000DF
:1006A30000000000000000000000000000007FE0E8
:1006B3000000000000000000000000000000000037
:1006C3000000000000000000000000000000000027
:1006D3000000000000000000000000000000000017
:1006E300000000000000000000003800380038005F
:1006F3000000000000000000000000200060004037
:1007030000C000800080010001000200020006001A
:10071300040004000800080010001000300020004E
:100723006000400000000000000000000000000026
:100733000F00198030C030C060606060606060602E
:10074300606060606060606030C030C019800F001E
:100753000000000000000000000000000000000096
:10076300020006003E000600060006000600060022
:1007730006000600060006000600060006003FC04D
:100783000000000000000000000000000000000066
:100793001F00218040C060C060C000C00180018094
:1007A3000300040008001040204040407FC07FC089
:1007B3000000000000000000000000000000000036
:1007C3001E002300618061806180018003000E00B0
:1007D3000180008000C060C060C060C021801F0035
:1007E3000000000000000000000000000000008086
:1007F30001800380038005800980098011802180A6
:10080300218041807FE0018001800180018007E039
:1008130000000000000000000000000000000000D5
:100823003FC03FC020002000200020002F00318067
:1008330020C000C000C060C060C0418021801F0094
:1008430000000000000000000000000000000000A5
:10085300078018C030C0300020006000678068C087
:1008630070606060606060602060304018C00F009E
:100873000000000000000000000000000000000075
:100883001FE03FE030402080208000800100010015
:100893000200020002000600060006000600060031
:1008A3000000000000000000000000000000000045
:1008B3001F8030C060606060606070403CC00F00AB
:1008C300338020C0606060606060606030C00F8013
:1008D3000000000000000000000000000000000015
:1008E3000F00308030C0604060606060606060E036
:1008F30031601E60006000C000C0308031801E0087
:1009030000000000000000000000000000000000E4
:1009130000000000000000000700070007000000BF
:1009230000000000000000000000070007000700AF
:1009330000000000000000000000000000000000B4
:100943000000000000000000000006000600000098
:100953000000000000000000000000000600060088
:10096300020004000000000000000000000000205E
:100973000040008001000200040008001000200075
:100983001000080004000200010000800040002065
:100993000000000000000000000000000000000054
:1009A300000000000000000000007FE000000000E5
:1009B300000000007FE000000000000000000000D5
:1009C3000000000000000000000000000000200004
:1009D3001000080004000200010000800040002015
:1009E3000040008001000200040008001000200005
:1009F30000000000000000000000000000000F8065
:100A030030C0406040606060606000C001800600EC
:100A1300040004000400000000000E000E000E009D
:100A230000000000000000000000000000000000C3
:100A330007801C601020335026D064906490689027
:100A43006890699069A066C0301030201840078014
:100A53000000000000000000000000000000000093
:100A6300060006000E000B000B001300118011801E
:100A730011801F8020C020C020C020606060F0F083
:100A83000000000000000000000000000000000063
:100A9300FF00618060C060C060C060C061807F0093
:100AA30060C06040606060606060606060C0FF80E4
:100AB3000000000000000000000000000000000033
:100AC30007E01860302030202000600060006000E4
:100AD30060006000600060203020304018800F000C
:100AE3000000000000000000000000000000000003
:100AF300FE00618060C060C06060606060606060D4
:100B0300606060606060606060C060C06380FE00C1
:100B130000000000000000000000000000000000D2
:100B2300FFC06040602060006000610061007F00E2
:100B33006100610060006000602060206040FFC0D1
:100B430000000000000000000000000000000000A2
:100B5300FFC060C0602060206000610061007F0012
:100B63006100610060006000600060006000F000F0
:100B73000000000000000000000000000000000072
:100B83000F4018C03040304020006000600060001B
:100B9300600063F060C060C030C030C018C00F0098
:100BA3000000000000000000000000000000000042
:100BB300F0F06060606060606060606060607FE073
:100BC3006060606060606060606060606060F0F002
:100BD3000000000000000000000000000000000012
:100BE3003FC00600060006000600060006000600D9
:100BF30006000600060006000600060006003FC0C9
:100C030000000000000000000000000000000000E1
:100C13000FF001800180018001800180018001804B
:100C230001800180018001800180018001800180B9
:100C3300618063003E00000000000000000000002F
:100C4300F3E0608061006200620064006C007C007D
:100C53007600670063006380618060C060E0F1F04C
:100C63000000000000000000000000000000000081
:100C7300F0006000600060006000600060006000E1
:100C83006000600060006000602060206040FFC082
:100C93000000000000000000000000000000000051
:100CA300F0F070E070E070E059605960596059608D
:100CB3005A604E604E604E604E6044604460E4F0A3
:100CC3000000000000000000000000000000000021
:100CD300E07070207020582058204C204620462079
:100CE3004320432041A040E040E040604060E020DA
:100CF30000000000000000000000000000000000F1
:100D03000F00198030C030406060606060606060D8
:100D13006060606060606060304030C019800F00C8
:100D230000000000000000000000000000000000C0
:100D3300FF8060C06060606060606060606060C031
:100D43007F80600060006000600060006000F00071
:100D53000000000000000000000000000000000090
:100D63000F00198030C03040606060606060606078
:100D73006060606060606E60324031C011800F80DF
:100D830001E000C0000000000000000000000000BF
:100D9300FF8060C0606060606060606060C07F0012
:100DA3006600630063006180618060C060C0F070B2
:100DB3000000000000000000000000000000000030
:100DC3001F2030E060206020600070003C000F00B6
:100DD30003C000C0006040604060606070C04F802E
:100DE3000000000000000000000000000000000000
:100DF3007FE04620861086100600060006000600E7
:100E030006000600060006000600060006000F00A6
:100E130000000000000000000000000000000000CF
:100E2300F0706020602060206020602060206020DF
:100E330060206020602060206020602030401F80A0
:100E4300000000000000000000000000000000009F
:100E5300F8F07060304030403040308018801880A7
:100E6300188018800D000D000D000F00060006000D
:100E7300000000000000000000000000000000006F
:100E8300F77066206620664066406740374037400B
:100E93003B803B803B803B80398011001100110077
:100EA300000000000000000000000000000000003F
:100EB30079E030C01880188019000D000E0006007C
:100EC300060007000B000B801980118030C079E009
:100ED300000000000000000000000000000000000F
:100EE300F8F0706030403080188018800D000D00DD
:100EF3000E000600060006000600060006001F801E
:100F030000000000000000000000000000000000DE
:100F13003FE020C041C001800380030003000600BE
:100F230006000C000C0018001820382030407FC049
:100F33000000000000000000000007E004000400BF
:100F4300040004000400040004000400040004007E
:100F5300040004000400040004000400040004006E
:100F6300040007E000000000000000000000200073
:100F73001000100010000800080004000400040022
:100F83000200020001000100010000800080004017
:100F9300004000400020000000003F00010001006D
:100FA3000100010001000100010001000100010036
:100FB3000100010001000100010001000100010026
:100FC30001003F0000000000000007000D801040FA
:100FD300000000000000000000000000000000000E
:100FE30000000000000000000000000000000000FE
:100FF30000000000000000000000000000000000EE
:1010030000000000000000000000000000000000DD
:1010130000000000000000000000000000000000CD
:1010230000000000FFF0000000003000380008005E
:101033000800100060000000000000000000000035
:10104300000000000000000000000000000000009D
:10105300000000000000000000000000000000008D
:10106300000000000000000000000F8030C030C00E
:1010730007C01CC030C060C060C060C071D03EF00B
:10108300000000000000000000000000000010004D
:101093007000300030003000300033803CC03860D6
:1010A30030603060306030603060304038C02F8056
:1010B300000000000000000000000000000000002D
:1010C300000000000000000000000F0031803180AC
:1010D30061806000600060006040304030800F003D
:1010E30000000000000000000000000000000040BD
:1010F30001C000C000C000C000C01EC031C030C06D
:1011030060C060C060C060C060C020C031E01E80AD
:1011130000000000000000000000000000000000CC
:1011230000000000000000000000078018C01060ED
:1011330030603FE030003000300018201C40078052
:10114300000000000000000000000000000000009C
:1011530003C006600C600C000C007FC00C000C0088
:101163000C000C000C000C000C000C000C003F8069
:10117300000000000000000000000000000000006C
:10118300000000000000000000000F70199030C044
:1011930030C030C019801F0030003E001FC06060A7
:1011A300606070E01F80000000000000000010007D
:1011B30070003000300030003000378038C030C05D
:1011C30030C030C030C030C030C030C030C079E033
:1011D300000000000000000000000000000000000C
:1011E300060006000000000000003E0006000600A6
:1011F30006000600060006000600060006003FC0C3
:1012030000000000000000000000000000000000DB
:10121300018001800000000000000F800180018038
:1012230001800180018001800180018001800180B3
:10123300018033003E0000000000000000001000A9
:101243007000300030003000300033C03100330014
:10125300320036003E003B0033003180318079E0BC
:101263000000000000000000000000000000020079
:101273003E00060006000600060006000600060003
:1012830006000600060006000600060006003FC032
:10129300000000000000000000000000000000004B
:1012A30000000000000000000000EEE077606660D0
:1012B3006660666066606660666066606660F7705A
:1012C300000000000000000000000000000000001B
:1012D3000000000000000000000073803CC030C02C
:1012E30030C030C030C030C030C030C030C079E012
:1012F30000000000000000000000000000000000EB
:10130300000000000000000000000F00198030C042
:101313006060606060606060606030C030C00F001B
:1013230000000000000000000000000000000000BA
:1013330000000000000000000000778038C030602B
:101343003060306030603060306030C038C037802B
:10135300300030007C0000000000000000000000AE
:10136300000000000000000000001E4031C030C03B
:1013730060C060C060C060C060C020C031C01EC01B
:1013830000C000C003E000000000000000000000F7
:1013930000000000000000000000F9E01A601C00DB
:1013A3001800180018001800180018001800FF0093
:1013B300000000000000000000000000000000002A
:1013C300000000000000000000000FE01860302063
:1013D30030001C000F8001C02060206030C03F80BF
:1013E30000000000000000000000000000000000FA
:1013F3000000040004000C000C007F800C000C00B3
:101403000C000C000C000C000C000C400C4007807E
:1014130000000000000000000000000000000000C9
:101423000000000000000000104071C030C030C058
:1014330030C030C030C030C030C030C039E01E8052
:101443000000000000000000000000000000000099
:10145300000000000000000000007CF0386018402D
:1014630018400C800C800C80070007000700020066
:101473000000000000000000000000000000000069
:1014830000000000000000000000F7B063206320AC
:101493006720372035C039C039C039C0108010806B
:1014A3000000000000000000000000000000000039
:1014B300000000000000000000007DE0188019809B
:1014C3000D000E00060007000B00198011C07BE021
:1014D3000000000000000000000000000000000009
:1014E300000000000000000000007DE0388018804C
:1014F30018800D000D000D00060006000200040018
:101503000400280038000000000000000000000074
:10151300000000000000000000003FC02180238085
:101523000300070006000E000C201C2018603FC0BB
:1015330000000000000000000000000000000000A8
:101543000000000000000000000000000000000098
:101553000000000000000000000000000000000088
:101563000000000000000000000000000000000078
:101573000000000000000000000000000000000068
:101583000000000000000000000000000000000058
:101593000000000000000000000000000000000048
:1015A3000000000000000000000000000000000038
:1015B3000000000000000000000000000000000028
:1015C3000000000000000000000000000000000018
:1015D3000000000000000000000000000000000008
:1015E30000000000000000000000000000000000F8
:1015F30000000000000000000000000000000000E8
:1016030000000000000000000000000000000000D7
:1016130000000000000000000000000000000000C7
:06162300000000000000C1
:102244009003A0EEF0A3EFF09003A4EAF0A3EBF068
:082254009003A2ECF0A3EDF0F1
:10225C009003A0E0FAA3E0FB24FFFFEA34FFFEC0EA
:10226C0007ED24FFFDEC34FFFCA3E0FFA3E090039B
:10227C00ADCFF0A3EFF0D0071222FBE49003A6F051
:10228C009003A4E0FEA3E0FF12233A9003A6E0041F
:07229C00F0E0C3941040E9DB
:0122A3002218
:101FF8009003CFEEF0A3EFF09003D3EAF0A3EBF059
:082008009003D1ECF0A3EDF010
:102010009003CFE0FAA3E0FB24FDFFEA34FFFEC00B
:1020200007EB2403FBE43AFAA3E0FFA3E09003AD3F
:10203000CFF0A3EFF0D0071222FBE49003D5F0908D
:1020400003D3E0FEA3E0FF12233A9003D5E004F0AF
:10205000E0C3940740E99003CFE0FAA3E0FBFFAEB2
:1020600002C006C0079003D2E024FDFD9003D1E03A
:1020700034FFFCE0FEA3E02403FFE43E9003ADF058
:10208000A3EFF0D007D0061222FBE49003D5F09026
:1020900003D3E0FEA3E0FF12233A9003D5E004F05F
:0620A000E0C3940740E9D3
:0120A6002217
:0E162900900382EEF0A3EFF0A3ECF0A3EDF03F
:10163700E490038EF0A3F0A3F0A3F0900382E0FE02
:10164700A3E0FFC3EB9FFFEA9E900392F0A3EFF0A6
:10165700900384E0FAA3E0FBC3900389E09BFE902C
:101667000388E09A900394F0A3CEF0900382E0FF02
:10167700A3E090039ECFF0A3EFF090039CEAF0A3C2
:10168700EBF0900392E0FEA3E0FFD39400EE6480BA
:101697009480400A900398E4F0A304F08021EF4E71
:1016A7007008900398F0A3F0801574FF900398F0EA
:1016B700A3F0C3E49FFFE49E900392F0A3EFF090A2
:1016C7000394E0FEA3E0FFD39400EE64809480408F
:1016D7000A90039AE4F0A304F08021EF4E7008907B
:1016E700039AF0A3F0801574FF90039AF0A3F0C358
:1016F700E49FFFE49E900394F0A3EFF0900394E03F
:10170700FEA3E0FF900392E0FCA3E0FDD39FEE640D
:1017170080F8EC6480989003964007ECF0A3EDF016
:101727008005EEF0A3EFF0E490038CF0A3F09003B4
:1017370097E02401FF900396E03400FED390038DD9
:10174700E09F90038CE09E400302181F90039EE0E9
:10175700FEA3E0FF90039CE0FCA3E0FD90038AE07A
:10176700FAA3E0FB122244900392E0FEA3E0FF906D
:10177700038FE02FF090038EE03EF0900394E0FE9D
:10178700A3E0FF900391E02FF0900390E03EF090EC
:101797000396E0FEA3E0FF90038EE0FCA3E0FDD3F9
:1017A7009FEE6480F8EC6480984020ED9FFFEC9EEC
:1017B70090038EF0A3EFF0900398E0FEA3E0FF9074
:1017C700039FE02FF090039EE03EF0900396E0FE2B
:1017D700A3E0FF900390E0FCA3E0FDD39FEE6480BD
:1017E700F8EC6480984020ED9FFFEC9E900390F00A
:1017F700A3EFF090039AE0FEA3E0FF90039DE02F94
:10180700F090039CE03EF090038DE004F0700690AA
:08181700038CE004F002173518
:01181F0022A6
:101C96009003AFEEF0A3EFF0A3ECF0A3EDF0A3EB0F
:071CA600F0A3EAF0A3E9F04E
:101CAD009003B3E0FBA3E0FAA3E0F91221D6700391
:101CBD00021DE29003AFE0FAA3E0FBFFAE02C00607
:101CCD00C007A3E0FCA3E0FDEB241FFBE43AFA9070
:101CDD0003B1E0FEA3E0241CFFE43E9003ADF0A3AE
:101CED00EFF0D007D0061222FBE49003BCF0900376
:101CFD00BCE0FFC394144003021DC79003B3E0FB87
:101D0D00A3E0FAA3E0F91221D6FE75F076EFA42434
:101D1D0003F582E5F03400F583E4936E6003021D54
:101D2D00BE9000011221EFFF9003BCE075F076A488
:101D3D002404F582E5F03400F583E4936F7072901E
:101D4D0003BAF09003BAE0FFC3947450649003BCDF
:101D5D00E075F076A42405F582E5F03400F583E511
:101D6D00822FF582E43583F583E493FF9003BDE480
:101D7D00F0A3EFF0E49003BBF09003BEE030E70575
:101D8D009003B680039003B8E0FEA3E0FF12233A60
:101D9D009003BEE025E0F09003BDE033F09003BB6F
:101DAD00E004F0E0C3940840D09003BAE004F08062
:101DBD00929003BCE004F0021CFB9003B4E475F0B8
:101DCD000212222E9003B0E02420F09003AFE034F5
:051DDD0000F0021CAD46
:011DE20022DE
:101F05009003BFEEF0A3EFF0A3ECF0A3EDF0A3EB8D
:071F1500F0A3EAF0A3E9F0DC
:101F1C009003C3E0FBA3E0FAA3E0F91221D670030F
:101F2C00021FF724E09003CCF09003BFE0FAA3E08B
:101F3C00FBFFAE02C006C007A3E0FCA3E0FDEB2450
:101F4C000FFBE43AFA9003C1E0FEA3E02417FFE490
:101F5C003E9003ADF0A3EFF0D007D0061222FBE4C5
:101F6C009003CBF09003CBE0FFC394305062A3E01E
:101F7C0075F030A42429F582E5F03404F583E5826C
:101F8C002FF582E43583F583E493FF9003CDE4F0E1
:101F9C00A3EFF0E49003CAF09003CEE030E7059095
:101FAC0003C680039003C8E0FEA3E0FF12233A901F
:101FBC0003CEE025E0F09003CDE033F09003CAE0CF
:101FCC0004F0E0C3940840D09003CBE004F080947C
:101FDC009003C4E475F00112222E9003C0E024108B
:0B1FEC00F09003BFE03400F0021F1C67
:011FF70022C7
:0300000002214A90
:0C214A00787FE4F6D8FD75810702219132
:1021D600BB010689828A83E0225002E722BBFE0207
:0921E600E32289828A83E493223A
:1021EF00BB010CE58229F582E5833AF583E02250A5
:1021FF0006E92582F8E622BBFE06E92582F8E222EF
:0D220F00E58229F582E5833AF583E4932208
:10221C00EF8DF0A4A8F0CF8CF0A428CE8DF0A42ED6
:02222C00FE2290
:10222E00C5F0F8A3E028F0C5F0F8E582158270023B
:06223E001583E038F022D8
:0C23D300EE30E707C3E49FFFE49EFE220B
:102156000223B0E493A3F8E493A34003F68001F2CC
:1021660008DFF48029E493A3F85407240CC8C3338A
:10217600C4540F4420C8834004F456800146F6DF59
:10218600E4800B0102040810204080901B45E47E89
:10219600019360BCA3FF543F30E509541FFEE4934E
:1021A600A360010ECF54C025E060A840B8E493A315
:1021B600FAE493A3F8E493A3C8C582C8CAC583CA40
:1021C600F0A3C8C582C8CAC583CADFE9DEE780BEF8
:011C9500004E
:00000001FF
